:020000040800F2
:10000000280C002009010008F72500083F250008FA
:10001000F5250008390B0008812F000800000000BA
:100020000000000000000000000000006B2A000833
:100030003B0B000800000000852900086D2A00081D
:100040002301000823010008230100082301000800
:1000500023010008230100082301000823010008F0
:1000600023010008230100082301000823010008E0
:1000700023010008230100082301000823010008D0
:1000800023010008230100082301000823010008C0
:1000900023010008230100082301000823010008B0
:1000A00000000000230100082301000823010008CC
:1000B0002301000823010008230100082301000890
:1000C0002301000823010008230100082301000880
:1000D00023010008692F0008752F0008230100087C
:1000E0002301000823010008230100082301000860
:1000F00023010008DFF80CD000F002FC00480047A4
:10010000C1400008280C00200648804706480047E8
:10011000FEE7FEE7FEE7FEE7FEE7FEE7FEE7FEE7B7
:10012000FEE7FEE7D92A0008F5000008D2B201E098
:1001300000F8012B491EFBD270470022F6E710B5EC
:1001400013460A4604461946FFF7F0FF204610BD45
:1001500030B505462A460B4612F8010B13F8014B41
:1001600008B1A042F8D01CB1002802D06D1CF1E704
:10017000284630BD421C10F8011B0029FBD1801A13
:100180007047F0B480EA0102D40F4200B2EB410F95
:1001900002D20246084611464A0042D0C30DDDB2E3
:1001A000C1F3C752AD1A202D35DAC1F3160141F45F
:1001B000000204B15242C5F1200602FA06F12A41BA
:1001C0001044B3EBD05F23D0C4B1012DA0EBC350DA
:1001D00009DCF0BC4FF0004202EAC352DBB200F58A
:1001E000000000F0C1BA400000F1807000EBC35085
:1001F000A0F1807040EAD170490009E0490841EA65
:10020000C071A0EBC35000F50000400800EBC350E4
:10021000F0BC00F0A0BA6142012202EB4101001BD8
:10022000F6E7F0BC704781F00041AAE780F000409B
:10023000A7E730B480EA010202F0004530F0004246
:1002400021F0004013D090B1C30DD40DC2F31601BC
:10025000C0F31600E41A41F4000140F400027D34BA
:10026000914201D3641C00E04900002C02DA30BC4A
:10027000002070474FF400000023914201D3891AF7
:10028000034340084FEA4101F7D151B1914202D1F5
:100290004FF0004105E002D24FF0010101E06FF0A4
:1002A000010103EBC450284430BC00F054BA2DE9DE
:1002B000FE4F804681EA0300C00F0C46009021F0FB
:1002C000004123F00045B8EB0200A94105D24046A9
:1002D000214690461C460B46024623F00040104340
:1002E00047D0270DC7F30A00C3F30A510290401A02
:1002F000019040286BDAC3F3130040F4801B009890
:10030000924620B10023D2EB030A63EB0B0B01985A
:100310005946C0F14002504600F0FCF906460D4631
:1003200050465946019A00F004FA10EB080061416A
:10033000002487EA115284EAE7731A4340D0009AF6
:1003400062B3019A012A4FEA075215DC001B61EBE8
:1003500002014FF0004202EA0752CDE90042001CC0
:1003600041F5801132462B4600F03BFA03B0BDE860
:10037000F08F40462146F9E7001B61EB0201001CAB
:1003800041F5801300185B412018A2F5001747EBD8
:10039000030140EAD570B6196D4111E06D084FEACE
:1003A000360645EAC0754FEA0752001B61EB0201B1
:1003B000001C41F5801149084FEA300000195141F5
:1003C00032462B4603B0BDE8F04F00F0FBB9009871
:1003D000012240000023D0EB020263EBE07300989F
:1003E00021464FEAE074B8EB000061EB0401E9E755
:1003F00083F000435BE781F0004158E72DE9FE4FB1
:1004000081EA030404F0004421F0004100944FF01D
:10041000000B23F0004350EA01045ED052EA0304CB
:100420005BD0C3F30A54C1F30A552C44A4F2F3344D
:100430000194A0FB0254C1F3130141F48011C3F3F2
:10044000130343F4801301FB024400FB034E840AB0
:10045000970A44EA815447EA8357A4FB0768029548
:100460008D0A05FB07854FEA932C04FB0C542705E6
:10047000029D4FEA065847EA1637B5EB08056EEBC2
:10048000070C870E920E47EA811742EA8312A7FBF8
:100490000201B6EB0B0164EB00042B0D43EA0C33B5
:1004A0005E1844EB1C50DA465146E7FB0201C5F3E7
:1004B00013044FEA0B3343EA14534FEA0432019C0E
:1004C00043EA0603A4F10C040294009CCDE900B4B5
:1004D00000F087F903B0BDE8F08F00200146F9E78E
:1004E0002DE9F04D81EA030404F0004B21F00045B2
:1004F00014464FF0000A23F0004150EA050220D0D4
:1005000054EA01021DD0C5F30A570246C5F313038E
:10051000C1F31300C1F30A5640F4801543F480136D
:10052000A7EB0608101BD64608F2FD3873EB050052
:1005300002D308F1010801E092185B41B8F1000F05
:1005400003DA00200146BDE8F08D00204FF4801151
:10055000064684460EE0171B73EB050705D3121BF6
:1005600063EB050306434CEA010C49084FEA3000EF
:1005700092185B4150EA0107EDD152EA030012D014
:1005800082EA040083EA0501084305D0101BAB4151
:1005900006D20122002306E000224FF0004302E0D1
:1005A0006FF0010253101AEB06004CEB085110EBF0
:1005B0000A0041EB0B01BDE8F04D00F003B970B546
:1005C00021F0004303430CD0C1F30A550024D5EBBE
:1005D000040564EB0403D617AD1AB34102DB002017
:1005E000014670BD201841EB025170BD96230022D8
:1005F000114600F0B9B800F0004220F00040C10DF3
:10060000C0F3160040F400007F2901DA0020704793
:10061000962903DCC1F19601C84001E09639884073
:10062000002AF4D04042704700F0004230F0004011
:100630000AD0C10D01F56071C0F3160042EA015104
:10064000C20840071143704700200146704701F07F
:10065000004330B421F0004150EA010206D00A0DF7
:10066000A2F56072C1F31301002A02DC30BC002045
:100670007047440F44EAC104C100E01830BC00EBED
:10068000C25000F068B830B50B4601460020202269
:10069000012409E021FA02F59D4205D303FA02F58F
:1006A000491B04FA02F52844151EA2F10102F1DCEF
:1006B00030BD2DE9F05F0546002092469B468846F6
:1006C0000646814640241BE02846414647462246CE
:1006D00000F028F953465A46C01A914110D31146EA
:1006E0001846224600F016F82D1A67EB01084F460F
:1006F00022460120002100F00DF817EB00094E41C1
:10070000201EA4F10104DFDC484631462A46434658
:10071000BDE8F09F202A04DB203A00FA02F1002015
:1007200070479140C2F1200320FA03F3194390402F
:100730007047202A06DBCB17203A41FA02F043EA41
:10074000E07306E041FA02F3D040C2F1200291408A
:100750000843194670470029A8BF7047401C49004C
:1007600008BF20F00100704710B4B0FA80FC00FA16
:100770000CF050EA010404BF10BC704749B1CCF141
:10078000200421FA04F411FA0CF118BF01212143CD
:100790000843A3EB0C01CB1D4FEA00614FEA102088
:1007A00042BF002010BC704700EBC350104400292A
:1007B000A4BF10BC7047401C490008BF20F00100D6
:1007C00010BC704710B5141E73F1000408DA401C09
:1007D00041F1000192185B411A4301D120F0010060
:1007E00010BD2DE9F04D92469B4611B1B1FA81F250
:1007F00002E0B0FA80F220329046FFF78BFF044609
:100800000F4640EA0A0041EA0B0153465A460843A4
:1008100013D0114653EA010019D0C8F140025046E6
:1008200000F080F805460E46504659464246FFF70E
:1008300071FF084305D0012004E020463946BDE899
:10084000F08D0020054346EAE0762C4337430A98B2
:100850006305E40AA0EB08000022FD0A44EA4754BD
:100860000A3002D500200146E9E701051019694167
:10087000DDE9084500196941BDE8F04DA2E70EB574
:10088000C10F80EAE0700844CA07002140F23343F8
:100890008DE80E000A460B46FFF7A3FF03B000BD2C
:1008A000C1F30A52C1F3130140F2FF3341F4801146
:1008B0009A4202DA00200146704740F233439A42DE
:1008C000A2F2334202DC524200F02CB8FFF722BF02
:1008D00030B5041E71F1000404DB4FF000444042C7
:1008E00064EB0101141E73F1000405DB1C464FF09C
:1008F0000043524263EB0403994208BF904230BD6B
:10090000064C074D06E0E06840F0010394E807005C
:1009100098471034AC42F6D3FFF7F0FB2C5B00088D
:100920004C5B0008202A04DB203A21FA02F0002167
:10093000704721FA02F3D040C2F1200291400843EF
:10094000194670472DE9F04D00231A461B1A8A41BB
:1009500003DB00200146BDE8F08DC1F30A52C1F36C
:10096000130141F480154FF0000BD10702D100189C
:100970006D41521E0027044640F2FF11384601EB3C
:10098000620A3E468046024600204FF48011FFF77F
:10099000C9FFC2197141BB1846EB0100B4EB030C4F
:1009A00075EB000C04D3E41A65EB000517460E4600
:1009B000241908F101006D4180463428E3DDF9195E
:1009C00046EB0600091BA84103D24FF0FF32134645
:1009D00001E0002213461BEB070046EB0A51BDE87D
:1009E000F04DFFF7EFBE000030B5041E71F10004BA
:1009F00004DB4FF00044404264EB0101141E73F12C
:100A0000000405DB1C464FF00043524263EB040335
:100A10008B4208BF824230BD70B58D1810F8014B73
:100A200014F0030201D110F8012B231106D110F8A4
:100A3000013B03E010F8016B01F8016B521EF9D184
:100A4000ABB110F8012B04F00C048A1A0C2C03D063
:100A5000A2EB84129B1C08E010F8014BA2EB0422CD
:100A6000F8E712F8014B01F8014B5B1EF9D5A942DA
:100A7000D4D3002070BD000070B504460068016842
:100A8000C94349061CD4816821F00101816000F04E
:100A90007FFB05460FE000BF00F07AFB401B0228F9
:100AA00009D9E06C40F01000E064206D40F00100D6
:100AB0002065012070BD20680068C0434006EBD56A
:100AC000002070BDF8B50026044600960068016855
:100AD000C94349062AD5816841F001018160144863
:100AE00014490068B0FBF1F000EB400000E0401E4C
:100AF00000900028FBD100F04BFB054611E000BF41
:100B000000F046FB401B02280BD9E06C40F01000BF
:100B1000E064206D40F00100206584F84860012009
:100B2000F8BD20680068C0434006E9D40020F8BD45
:100B3000A405002040420F00FEE77047F8B50024EE
:100B4000009490F848202546012A12D0012280F80E
:100B500048204A681F23072A0DD20668376C521EA8
:100B600002EB820293409F430B6893401F4337641C
:100B700035E00220F8BD0D2A0BD20768FE6BD21FAC
:100B800002EB820293409E430B6893401E43FE6338
:100B900025E0132A0BD20668B76B0D3A02EB8202EE
:100BA00093409F430B6893401F43B76317E0066869
:100BB000192A0AD2776B133A02EB820293409F43C1
:100BC0000B6893401F43776309E0376B193A02EBD8
:100BD000820293409F430B6893401F4337630A6828
:100BE00007230A2A0AD20668776902EB4202934079
:100BF0009F438B6893401F4377611CE0142A0BD2FC
:100C000007683E690A3A02EB420293409E438B68B2
:100C100093401E433E610EE01A2A0BD80768FE6817
:100C2000143A02EB420293409E438B6893401E436A
:100C3000FE6000E000BF0A68102A01D0112A17D117
:100C40000D4A13681B0213D4136843F400031360A6
:100C5000096810290CD10949094A0968B1FBF2F168
:100C600001EB8101490000E0491E00910029FBD100
:100C700080F848502046F8BD04270140A405002014
:100C800040420F000068806D70470000F8B5040016
:100C90004FF0000503D0E06C002610B110E00120F9
:100CA000F8BD26655B4884F84860016841F00101A1
:100CB0000160006800F001000090204600F0B4F8E8
:100CC000E06CC00678D4E06C20F4885040F002005C
:100CD000E06451480168626821F4403111430160C9
:100CE0006169E0684FF40073084393FAA3F3E26B81
:100CF000B3FA83F3216A9A4011430843022191FA1F
:100D0000A1F1626AB1FA81F102FA01F10843616B63
:100D1000102902D0A36B19430843236819684FF4C4
:100D20008077C943490629D5A169D4F81CC0084376
:100D3000A168D4F810E041EA0C01BE450CD0BEF128
:100D4000010F09D04FF0000C41EA0C01D4F82CC07F
:100D5000BCF1010F02D00AE0BC46F5E76AB3E26CD1
:100D600042F02002E264226D42F0010222655A68DC
:100D7000DFF8A8C002EA0C020A435A6021688A68B8
:100D8000274B1A4002438A602169B94224D00129C5
:100D900022D021680A6B22F0F8720A632168896800
:100DA000204A1140814227D12665E06C20F00200E4
:100DB00040F00100E0642AE028E0FFE74FF4604CD7
:100DC000226B9CFAACFCBCFA8CFC521E02FA0CF2B0
:100DD0000A4342F40061CAE721680A6B4FF0F877D2
:100DE00022F0F873A26A97FAA7F7B7FA87F7521EAC
:100DF000BA4013430B63D1E7E06C20F0020040F0EF
:100E00001000E064206D40F00100206501252846B7
:100E1000F8BD00002038024004270140FF16FCFC0A
:100E20008DF1FFC0FEFF80BF10B586B004461421CF
:100E30006846FFF782F91149206888421CD11048A2
:100E4000016841F400710160006800F400700590D1
:100E50000B48001F016841F001010160006869460C
:100E600000F0010005900120009003200190002077
:100E70000290044800F0BCF806B010BD0024014008
:100E800020380240000002402DE9F041044600688D
:100E90000D4681684FF0000749050BD58068C005F5
:100EA00008D5E06C40F02000E06484F84870012030
:100EB000BDE8F08100F06CF906460FE0681C0DD02B
:100EC00025B100F065F9801BA84207D9E06C40F01D
:100ED0000400E06484F848700320E9E720680068B3
:100EE0008007EBD5A06918B921686FF0120008607F
:100EF000E06C40F40070E0642068816811F0405FAD
:100F000013D1616A89B9016B11F0F87F02D0806852
:100F100040050AD4E06C20F48070E064E06CC0040A
:100F200003D4E06C40F00100E0640020C0E710B59D
:100F3000044690F84800012822D0012084F8480097
:100F40002046FFF7BFFD00281BD1E16C40F2016293
:100F5000914341F48071E16421684A68520505D5E6
:100F6000E26C22F4005242F48052E264E26CD30458
:100F70004FF0000206D5236D23F00603236502E03F
:100F8000022010BD226584F848206FF022020A601A
:100F900021688A6812F0405FF3D18A6842F080428B
:100FA0008A6010BD10B5044690F84800012807D0AB
:100FB000012084F848002046FFF75EFD10B107E0ED
:100FC000022010BDE16C21F4885141F00101E1647F
:100FD000002184F8481010BD31B500F0D9F804465E
:100FE00000F0D6F80099001B8842F9D338BD000004
:100FF0002DE9F84FDFF864B100234FF0010C4FF0FA
:10100000030A4FF00F090BF1040EA0E00CFA03F6EF
:10101000324072D04C68022C01D0122C0ED1DC0868
:1010200000EB8408D8F820405D07EF0E09FA07F5B9
:10103000AC430D69BD402543C8F8205007685D00EA
:1010400091F804800AFA05F408F00308A74308FAA7
:1010500005F848EA0708C0F800804F68012F05D05E
:10106000022F03D0112F01D0122F11D18768D1F890
:101070000C80A74308FA05F848EA0708C0F808807A
:101080004768B7430E79C6F300169E403E4346605C
:10109000C668A6438C68AC403443C4604C68E40026
:1010A00054D52F4C256845F001052560246823F0B0
:1010B000030504F0010400942A4C2544AF689C0702
:1010C000240F09FA04F6B743274EB04201D1002697
:1010D00015E0264EB04201D1012610E0244EB04268
:1010E00001D102260BE0234EB04201D1032606E0D7
:1010F000214EB04202D1042601E027E00526A64099
:101100003E43AE60DBF800405D464E689443F60314
:1011100000D514432C60DEF8004075464E689443B9
:10112000B60300D514432C600C4D08352C684E686E
:101130009443F60200D514432C60084D0C352C68FE
:101140004E689443B60200D514432C605B1C0A68B9
:1011500032FA03F47FF45AAFBDE8F88F000401407F
:10116000203802400000014000000240000402401C
:1011700000080240000C02400010024000690840D4
:1011800000D0012070470AB1816170470904FBE774
:101190000148006870470000A0050020024801686F
:1011A000491C016070470000A005002010B5032015
:1011B00000F066F8002000F005F800F017F80020B5
:1011C00010BD000010B5044607484FF47A7100685E
:1011D000B0FBF1F000F0BDFF00222146501E00F0F0
:1011E0002FF8002010BD0000A40500200D4808B510
:1011F000016841F000410160016801F00041009187
:10120000011F0A6842F001020A60096801F0010149
:101210000091016841F080510160006800F0805049
:10122000009008BD2438024000F01F0201219140C7
:101230004009800000F1E020C0F800117047000074
:10124000F0B40E4B1B680C46C3F30223C3F1070531
:10125000042D00D90425191D072901D2002300E01F
:10126000DB1E012606FA05F1491E214099409E40E9
:10127000761E16403143F0BC01F0BEB90CED00E023
:10128000064900F0070208684FF6FF03184040EADD
:101290000220034A10430860704700000CED00E094
:1012A0000000FA052DE9F84F06460078C00775D012
:1012B000DFF84C810027D8F80000C0000BD4D8F824
:1012C000001041F08051C8F80010D8F80000012744
:1012D00000F0805000904B4C2068C00510D420686E
:1012E00040F480702060FFF753FF054605E000BF23
:1012F000FFF74EFF401B64284ED82068C005F7D585
:101300003F4D243D286800F0C041706800F0C042A5
:101310008A4209D0C0F30141032905D12968890314
:1013200002D50120BDE8F88F354C1034216811F446
:1013300040314AD000F44030884246D03078C0076F
:1013400043D020684FF4000292FAA2F1B1FA81F181
:101350004FEA810C2C494FF0010A8C4420F44030B4
:10136000CCF880A692FAA2F2B2FA82F201EB8201E4
:101370000023C1F880362060C00526D5FFF708FF9E
:1013800081464FF4007B0AE0FFF702FFA0EB090162
:1013900041F28830814202D90320C3E72EE09BFA54
:1013A000ABF0B0FA80F040F04001BAEB511F01D130
:1013B000296800E021689BFAABF2B2FA82F202F0EF
:1013C0001F020AFA02F00142DED07068C0F3014148
:1013D000032906D1296800F0C04021F0C041014333
:1013E00029602068716801F44031084320602FB102
:1013F000D8F8001021F08051C8F80010002091E7C3
:101400002438024000700040000047422DE9F047B8
:10141000DFF8BC8105460E46D8F8000000F0010058
:10142000B04214D2012E05D1D8F8001041F00401C9
:10143000C8F80010D8F8001021F001013143C8F8B5
:101440000010D8F8000000F00100B04271D12878F7
:10145000604C800705D52068A96820F0F00008439B
:1014600020602878C00771D05A4A5A4B6968012019
:10147000083A2C33022910D003292ED001292FD06D
:101480005FEA402797FAA7FCBCFA8CFC4CF0200CD2
:101490005FEA5C1C04D0126803E04FF40037F1E708
:1014A0001A6897FAA7F3B3FA83F303F01F0398407F
:1014B000024262D0206820F0030008432060FFF75A
:1014C00067FE6968074641F28830022910D0032977
:1014D0001CD00129814626D034E04FF00077D1E7B7
:1014E0000227CFE7FFF754FEC11B494501D926E08B
:1014F00081462068C0F381000228F3D126E000BFB6
:10150000FFF746FEC11B494501D918E08146206816
:10151000C0F381000328F3D118E000BFFFF738FEC5
:10152000C11B49450BD82068C0F381000128F5D1C3
:101530000CE022E0FFF72CFEC11B494502D9032035
:10154000BDE8F087206810F00C0FF3D1D8F8001038
:10155000404601F00101B14211D9012E03D10168C9
:1015600041F004010160016821F001013143016093
:10157000006800F00100B04201D00120E0E72878C7
:10158000400705D52068E96820F4E0600843206042
:101590002878000706D52068296920F4605040EAC1
:1015A000C100206000F04CF82168F02292FAA2F20B
:1015B00001F0F001B2FA82F2D140074A515CC84012
:1015C000064908600020FFF7FDFD0020B8E7000095
:1015D000003C024008380240015A0008A4050020DF
:1015E00008480949006809684FF4E06292FAA2F2DB
:1015F00001F4E061B2FA82F2D140044A515CC84081
:1016000070470000A405002008380240115A000865
:1016100008480949006809684FF4605292FAA2F23A
:1016200001F46051B2FA82F2D140044A515CC840E0
:1016300070470000A405002008380240115A000835
:101640001E4A116801F00C00042813D0082813D09A
:101650000C2813D0101F006800F460414FF4604064
:1016600090FAA0F0B0FA80F0C1404FF40040491C5D
:101670008840704712487047124870474FF4701303
:1016800093FAA3F301F47010B3FA83F3D8400E4B2E
:1016900001F440011268185C4FF4400393FAA3F37D
:1016A000B3FA83F3D940491CD20301D5054A00E0BF
:1016B000034A5043B0FBF1F0704700000838024085
:1016C0000024F40000366E01F85900082DE9F84FA7
:1016D00007460078FB4EFC4DC0074FF0010428D0B0
:1016E000F848083001684FF40038C1F3810102293D
:1016F00007D00168C1F3810103291BD10068C00331
:1017000018D598FAA8F0B0FA80F040F0200040090F
:1017100001D0306800E0286898FAA8F1B1FA81F1A8
:1017200001F01F0104FA01F108425CD0786800283A
:101730007BD058E0786801280AD008B1052811D07C
:10174000306820F480303060306820F4802002E07F
:10175000306840F480303060786828B3FFF718FDB7
:1017600081460BE0306840F480203060F0E700BF35
:10177000FFF70EFDA0EB0900642872D898FAA8F0D4
:10178000B0FA80F040F02000400901D0306800E05D
:10179000286898FAA8F1B1FA81F101F01F0104FA62
:1017A00001F10842E4D01EE0FFF7F2FC814605E0BB
:1017B000FFF7EEFCA0EB09006428DED898FAA8F049
:1017C000B0FA80F040F02000400901D0306800E01D
:1017D000286898FAA8F1B1FA81F101F01F0104FA22
:1017E00001F10842E4D13878DFF8E08280074FF059
:1017F000000B4FF002095FD5B24808300168C1F311
:101800008101012907D00168C1F3810103291CD19D
:101810000068C00319D499FAA9F0B0FA80F040F03A
:101820002000400902D0306801E086E0286899FA7B
:10183000A9F1B1FA81F101F01F0104FA01F10842A6
:101840002BD0F868012878D127E0F868A8B394FA7B
:10185000A4F0B0FA80F048F82040FFF799FC8246E7
:1018600006E066E1FFF794FCA0EB0A00022884D8AA
:1018700099FAA9F1B1FA81F141F02001490901D0A9
:10188000316800E0296899FAA9F0B0FA80F000F018
:101890001F0004FA00F00142E4D08A48001D0168EC
:1018A0004FF4F85393FAA3F33A69B3FA83F321F4AC
:1018B000F8519A401143016025E0FFE794FAA4F142
:1018C000B1FA81F148F821B0FFF762FC824605E0E9
:1018D000FFF75EFCA0EB0A000228C8D899FAA9F02D
:1018E000B0FA80F040F02000400901D0306800E0FC
:1018F000286899FAA9F1B1FA81F101F01F0104FAFF
:1019000001F10842E4D138784FF4007AC0067CD562
:101910006C480830006810F00C0F0FD0B9694FF414
:101920008070002972D090FAA0F0B0FA80F048F8E8
:101930002040FFF72DFC00907EE087E09AFAAAF0A5
:10194000B0FA80F040F02000400901D0306800E09B
:1019500028689AFAAAF1B1FA81F101F01F0104FA9C
:1019600001F1084202D0B86900286FD05548396AA1
:10197000001D006800F4604081421AD9084601F059
:1019800003F8002862D14F48001D01683A6A21F42B
:1019900060411143016001684FF07F4393FAA3F364
:1019A000FA69B3FA83F321F07F419A401143016051
:1019B00018E04448001D026822F460420A430260B5
:1019C00001684FF07F4393FAA3F3FA69B3FA83F304
:1019D00021F07F419A4011430160386A00F0D4FF42
:1019E0000028CFD14FF4604191FAA1F1386AB1FAE1
:1019F00081F1C8404FF40041401C8140314808301B
:101A00000068F02200F0F00001E070E040E092FA9F
:101A1000A2F2B2FA82F2D0402D4A105CC1402D48A9
:101A200001600020FFF7CEFB61E000BFFFF7B0FBD5
:101A30000099401A02287CD89AFAAAF0B0FA80F0ED
:101A400040F02000400902D0306801E0BCE1286885
:101A50009AFAAAF1B1FA81F101F01F0104FA01F139
:101A60000842E3D01748001D01683A6A21F460413A
:101A70001143016001684FF07F4393FAA3F3FA69C1
:101A8000B3FA83F321F07F419A40114301602EE0C5
:101A900090FAA0F0B0FA80F048F820B0FFF778FB99
:101AA000009005E0FFF774FB0099401A0228C2D8A5
:101AB0009AFAAAF0B0FA80F040F0200040090BD06A
:101AC00030680AE0003802403438024000004742E3
:101AD000015A0008A405002028689AFAAAF1B1FA70
:101AE00081F101F01F0104FA01F10842DAD13878DE
:101AF000000753D5786948B394FAA4F0B0FA80F09F
:101B000008EB8000C0F88046FFF742FB009005E03C
:101B1000FFF73EFB0099401A02288CD899FAA9F0E9
:101B2000B0FA80F040F04000B4EB501F02D13068B2
:101B300001E08EE0286899FAA9F1B1FA81F101F08B
:101B40001F0104FA01F21042E2D027E094FAA4F156
:101B5000B1FA81F108EB8101C1F880B6FFF718FBFB
:101B6000009005E0FFF714FB0099401A022870D896
:101B700099FAA9F0B0FA80F040F04000B4EB501FA1
:101B800001D1306800E0286899FAA9F1B1FA81F131
:101B900001F01F0104FA01F21042E3D13878400746
:101BA0007BD59B484FF000090068C0000AD49848D4
:101BB000016841F08051016000684FF0010900F0B8
:101BC0008050009093480168C90511D4016841F420
:101BD00080710160FFF7DCFA009005E0FFF7D8FAAA
:101BE0000099401A642834D88A480068C005F5D5A1
:101BF000B86801280AD008B1052811D0286820F457
:101C000080702860286820F4806002E0286840F432
:101C100080702860B86848B3FFF7BAFA00900DE00A
:101C2000286840F480602860F0E700BFFFF7B0FA52
:101C30000099411A41F2883081420AD89AFAAAF0F2
:101C4000B0FA80F040F04000B4EB501F02D1306891
:101C500001E095E028689AFAAAF1B1FA81F101F061
:101C60001F0104FA01F21042E0D022E0FFF790FADF
:101C7000009007E0FFF78CFA0099411A41F2883092
:101C800081427DD89AFAAAF0B0FA80F040F0400084
:101C9000B4EB501F02D1306801E012E028689AFAD4
:101CA000AAF1B1FA81F101F01F0104FA01F2104228
:101CB000E0D1B9F1000F04D05548016821F08051FE
:101CC0000160786AE8B3DFF84891A9F11C09D9F8F6
:101CD0000010C1F38101032976D002284FF08071F2
:101CE0004FF0007A58460BD091FAA1F1B1FA81F188
:101CF00048F82100FFF74CFAB046074656466DE01B
:101D00004FF0807191FAA1F1B1FA81F18A00424954
:101D10005050FFF73DFAB3468046564606E000BFF6
:101D2000FFF736FAA0EB0800022854D896FAA6F07E
:101D3000B0FA80F040F02000400903D0DBF800004A
:101D400001E061E0286896FAA6F1B1FA81F101F0AC
:101D50001F0104FA01F10842E2D1D7E90A103A6BF7
:101D6000D9F80030014323F47D031A431143C9F825
:101D700000104FF0807090FAA0F0B0FA80F000E010
:101D800029E0810024480C50FFF702FA074604E0DE
:101D9000FFF7FEF9C01B02281DD896FAA6F0B0FA8C
:101DA00080F040F02000400902D0DBF8000000E0A5
:101DB000286896FAA6F1B1FA81F101F01F0104FA40
:101DC00001F10842E4D01FE020E000BFFFF7E0F996
:101DD000C01B022802D90320BDE8F88F96FAA6F0AE
:101DE000B0FA80F040F02000400902D0D8F800009E
:101DF00000E0286896FAA6F1B1FA81F101F01F011E
:101E000004FA01F10842E1D10020E5E70120E3E70F
:101E100024380240007000400000474210B50068BE
:101E20000B4641680D480140080CD870C1F30424EA
:101E30005C7001F03F049C70C1F34231197052B9DB
:101E400000F0E2FDD870587800F0DEFD5870987808
:101E500000F0DAFD9870002010BD00003FFFFF0089
:101E600010B500680C4601680E480140C1F30540FA
:101E70002070C1F30623637001F07F03A370402339
:101E800003EA1141E17052B900F0BEFD20706078A4
:101E900000F0BAFD6070A07800F0B6FDA0700020E0
:101EA00010BD00007F7F7F0070B5040002D0607F0E
:101EB00010B106E0012070BD00202077204600F020
:101EC00041F8022060772168CA20486221685320C7
:101ED0004862204600F0ACFDFF210028206803D0B6
:101EE000416204206077E5E78268154B1A40826002
:101EF0002268906863681843D4E904352B4318437B
:101F000090602268E068106120680269238942EAD3
:101F1000034202612068C26822F08002C260206829
:101F2000026C22F4802202642068026CA3691A43C6
:101F300002642068416201206077002070BD0000CB
:101F4000BFFF8FFF0068074988420AD10120810541
:101F500091FAA1F1044AB1FA81F102EB8101C1F8D1
:101F60008006704700280040000047422DE9F047F6
:101F70000446007F0B46012825D04FF0010984F864
:101F80001C9002206077587802B300F03DFD9878ED
:101F900000F03AFD9878D97840EA014558781978E8
:101FA000000240EA413005432168CA2048622168A6
:101FB00053204862204600F03BFD0026FF274FF0EB
:101FC000040838BB19E00220BDE8F087C10603D53C
:101FD00000F0EF000A305870D87800F01EFD0204BF
:101FE000587800F01AFD42EA0022987800F015FDBA
:101FF0000243187842EA4035D6E70D48054020688C
:1020000045602068C16821F08001C160204600F071
:1020100085F830B12068476284F81D80267701205A
:10202000D2E72068476284F81D9026770020CBE72E
:102030003FFFFF002DE9F0470446007F0D460128D1
:1020400011D04FF0010A84F81CA0022060772068AC
:10205000002680684FEA406042B100281ADA2878EA
:1020600000F0D2FC17E00220BDE8F087002800DB7A
:10207000EE70287800F0D1FC0204687800F0CDFC06
:1020800042EA0022A87800F0C8FC0243E87842EA5D
:1020900000470AE0EE70A878297840EA014768789E
:1020A000E978000240EA014007432168CA204862FB
:1020B000216853204862204600F0BAFC4FF0FF0828
:1020C0004FF00409C0B91448074020680760206831
:1020D000816821F480218160D5E9010108432168EC
:1020E0008A68104388602068C16821F08001C1605F
:1020F000204600F013F838B12168C1F8248084F834
:102100001D9026770120AFE72168C1F8248084F86C
:102110001DA026770020A7E77F7F7F0070B50446CB
:102120000068C16821F0A001C160FFF731F80546E1
:102130004FF47A7607E000BFFFF72AF8401BB04261
:1021400001D9032070BD2068C0688006F4D5002046
:1021500070BD10B5401EB0F1807F01D3012010BDCD
:102160004FF0E02460610F21601700F045FA002075
:10217000A06107202061002010BD000010B5C16BD8
:1021800004460CA000F0FEFE0020E0630D488442EF
:1021900003D101220C4900F011F90A484030844271
:1021A00006D109490122BDE81040491C00F006B9DA
:1021B00010BD000055415254204572726F723A258D
:1021C000780D0A00A40700209805002038B50446C1
:1021D00000680168C26811F0010F02F4807204D037
:1021E0001AB1E16B41F00101E1630168C1F3400202
:1021F000416901F0010122B119B1E26B42F0040220
:10220000E2630268C2F3800222B119B1E26B42F0CC
:102210000202E2630268C2F3C00222B119B1E16BAB
:1022200041F00801E1630168C068C1F3401100F0AA
:10223000200019B110B1204600F076FC206801683A
:10224000C068C1F3C01100F0800019B110B1204680
:1022500000F00EFE21680868CA68C0F3801002F022
:102260004002012570B16AB1CA68204622F04002DE
:10227000CA6094F83910322911D080F8395000BF63
:1022800000F05CF9E06B002808D020680168406825
:10229000009084F839502046FFF770FF38BD2221A6
:1022A00080F83910ECE770B5040004D094F83900D8
:1022B000002510B106E0012070BD84F8385020469A
:1022C00000F020F8022084F839002068C16821F469
:1022D0000051C160204600F07BFC2068016921F4B8
:1022E000904101612068416921F02A014161206823
:1022F000C16841F40051C160E563012084F83900F0
:10230000002070BDF0B587B0044614216846FDF783
:1023100014FF264F2268264902230124032507269D
:102320002448BA421DD10A1D176847F48047176038
:10233000126802F4804205920A6842F001020A60C3
:10234000096801F00101059169028DE87A0069468A
:10235000FEF74EFE002211462520FEF771FF2520D4
:1023600020E0154FBA421FD1114A0832176847F4CE
:1023700000371760126802F4003205920A6842F0D2
:1023800001020A60096801F0010105910C218DE844
:102390007A006946FEF72CFE002211462620FEF741
:1023A0004FFF2620FEF740FF07B0F0BD0038014088
:1023B0001C380240000002400044004090F83930D0
:1023C000012B01D0122B2CD139B332B390F8383015
:1023D000012B26D0012380F8383081628285C285A6
:1023E0000021C16390F83920122A18D05FF0220230
:1023F00080F8392080F838100168CA6842F4807289
:10240000CA6001684A6942F001024A610068C16815
:1024100041F02001C1600020704701207047322246
:10242000E6E702207047000070B504460E480F4DE5
:10243000844207D1287802F0F5FE012229460A4895
:10244000FFF7BCFF0848403084420BD1687802F0A7
:1024500035FF0649BDE8704003480122491C403061
:10246000FFF7ACBF70BD0000A40700209805002056
:102470002DE9F047044690F8390099460D460128A9
:1024800001D0222858D12DB322B394F83800012866
:1024900052D0012684F838600027E76394F83900A9
:1024A00022281AD05FF0120084F83900A284E28456
:1024B0004FF48058E08C4B46401EE084A0684FF0FB
:1024C000000240454FF08001204613D100F003FD8B
:1024D00008BB04E00120BDE8F0873220E4E728884B
:1024E0002168C0F308004860206908B16D1C08E04D
:1024F000AD1C06E000F0EFFC68B9216815F8010B8F
:102500004860E08C0028D5D14B460022402120466F
:1025100000F0E1FC08B10320DDE794F8390032282F
:1025200006D084F8396000BF84F838700020D2E704
:10253000222084F83900F7E70220CCE77047FEE755
:102540003EB500241048009401940E490294C0E95D
:1025500000148460C460046144618461C461012525
:102560000462C0E909451021C462C0E90D14C463C6
:10257000FEF78CFBCDE90045694603480294FEF75F
:10258000DDFA3EBD00240140300700201FB50024C5
:10259000174800940194029414490394C0E900146C
:1025A0007F218160FF21C0E9031444618461FFF74A
:1025B0007BFC8DF800408DF801408DF802400194BD
:1025C000002269460A480294FFF734FD01208DF885
:1025D0000C008DF80D008DF80E008DF80F400022D4
:1025E00003A90348FFF7C2FC1FBD000000280040FC
:1025F00084070020FEE770470907090E002806DA65
:1026000000F00F0000F1E02080F8141D704700F189
:10261000E02080F80014704770B5002404F1B00089
:10262000C0B2002100F06CF90021022000F068F92E
:102630000021102000F064F900250121002000F0A5
:102640005FF96D1CEDB2802DF7D3641CE4B2082C49
:10265000E4D370BD2DE9F047624886B0016841F0CF
:10266000020101600068012400F0020005904FF4AF
:102670008056CDE90064DFF870A103256946504615
:10268000CDE90245FEF7B4FCA703CDE90074694625
:102690005046CDE90245FEF7ABFC4FF40058CDE9BA
:1026A000008469465046CDE90245FEF7A1FC4FF48F
:1026B0000049CDE9009469465046CDE90245FEF750
:1026C00097FC012231465046FEF75DFD0122394656
:1026D0005046FEF758FD012241465046FEF753FD95
:1026E000012249465046FEF74EFD0021AE2000F083
:1026F00007F90021022000F003F90021102000F06A
:10270000FFF80021402000F0FBF80021812000F0BC
:10271000F7F80021CF2000F0F3F80021A12000F00D
:10272000EFF80021C82000F0EBF80021A62000F00F
:10273000E7F80021A82000F0E3F800213F2000F096
:10274000DFF80021D32000F0DBF80021084600F07C
:10275000D7F80021D52000F0D3F80021802000F028
:10276000CFF80021D92000F0CBF80021F12000F0B3
:10277000C7F80021DA2000F0C3F80021122000F091
:10278000BFF80021DB2000F0BBF80021402000F062
:10279000B7F80021202000F0B3F80021022000F05B
:1027A000AFF800218D2000F0ABF80021142000F0DC
:1027B000A7F80021A42000F0A3F80021A62000F033
:1027C0009FF80021AF2000F09BF80021AF2000F01F
:1027D00097F8FFF721FF0021084600F007F806B040
:1027E000BDE8F0871C3802400004024010B50446E2
:1027F000B031C8B2002100F083F8102040EA141074
:10280000002100F07DF804F00F00BDE8104040F01A
:102810000100002100F074B82DE9F04115460E4684
:102820000746FFF7E3FF0F48002400EB8515012161
:10283000285D00F065F8641CE4B2102CF7D3761C18
:10284000F1B23846FFF7D2FF00242819012190F891
:10285000200000F055F8641CE4B2102CF5D3BDE85C
:10286000F0810000000000202DE9F041203A002412
:102870000D468046D7B27F2803D900208D1C8046A4
:10288000EDB22946FFF7B2FF0F4E00BF04EB071071
:102890000121305C00F034F8641CE4B2082CF5D35C
:1028A0006D1CE9B24046FFF7A1FF002404EB0710BE
:1028B00030440121007A00F023F8641CE4B2082CB3
:1028C000F4D3BDE8F0810000085400082DE9F04180
:1028D00017460E46044600250CE031462046FFF719
:1028E000C3FF0834E4B2782C02D90024B61CF6B237
:1028F0006D1CEDB27A5D002AEFD1BDE8F0810000D9
:102900002DE9F0471E4D06464FF4804A09B10122D9
:1029100000E0002251462846FEF735FC4FF480586F
:10292000002241462846FEF72EFC00244FF40049C1
:102930004FF40057002239462846FEF724FC3006A3
:1029400001D5012200E0002249462846FEF71BFC83
:10295000012239462846FEF716FC7006641C060E56
:10296000E4B2082CE6D3012241462846FEF70BFCD0
:1029700051462846BDE8F0470122FEF704BC00009E
:10298000000402407047000038B51C490023096864
:102990001B4A11F0F00F23D118491C310C68E500D7
:1029A000184C03D5216801F4C0540EE00D6845F0C1
:1029B00080550D600D6805F08055009524680D6800
:1029C00004F4C05425F080550D60B4F5C05F07D104
:1029D000B0F5404F04D11068012340F004001060AE
:1029E000106820F0010018431060106800F001002A
:1029F000984201D0012038BD002038BD083802407F
:102A0000003C024000700040010901EB810100F030
:102A10000F0000EB4100C0B27047002102E00A380D
:102A2000C0B2491C0A28FAD2090740EA116070476F
:102A300070B504460068C168490614D44FF0FF31F0
:102A4000C160FEF7A5FB05464FF47A7607E000BFAC
:102A5000FEF79EFB401BB04201D9032070BD2068E9
:102A6000C0684006F4D5002070BD7047FEF796BBE5
:102A700030B595B034216846FDF75FFB14210DA8F1
:102A8000FDF75BFB0024134812941394016821F4B2
:102A9000C05141F4006101600620012500900295BB
:102AA00010200994CDE903506846FEF70FFE0F2071
:102AB000CDE90E540D90109400210DA81194FEF74D
:102AC000A5FC2804CDE9125012A8FEF7EBFB15B0C7
:102AD00030BD0000007000400F48016841F4807173
:102AE00001600D4908310A680C4B1A400A600268FF
:102AF0000B4B1A400260026822F4802202600868D0
:102B000020F47D0008600020091D086005494FF091
:102B10000060086070470000003802400CC0FF8869
:102B2000FEFFFEEE08ED00E010B590F83910222906
:102B300003D0322901D0022010BD8168B1F5805F39
:102B400011D00169002901681FD0496801F07F0395
:102B5000816A4A1C82620B70C18D491E0904090CEE
:102B6000C18518D030E00269816A002A0268526883
:102B700005D0D2B20A80816A491C8162ECE7C2F3B7
:102B800008020A80816A891CF7E74A68816A4B1C3F
:102B900083620A70E0E70168CA6822F02002CA6016
:102BA00090F83910322911D00168CA6822F4807275
:102BB000CA6001684A6922F001024A615FF00101BE
:102BC00080F83910FFF730FC002010BD1221F7E724
:102BD0002DE9F041044600680169E26821F44051A2
:102BE000114301612169A068E269084361691143E9
:102BF00008432168CA6849F20C639A430243CA60D9
:102C000020684169A26921F4407111434161E16981
:102C10006425B1F5004F954821684FF032083DD04A
:102C200081427AD1FEF7F4FC00EBC00101EB001009
:102C300061688900B0FBF1F6FEF7EAFC00EBC00129
:102C400001EB001061688900B0FBF1F0B0FBF5F01A
:102C50006FF01801484306EB800108EB0110B0FB50
:102C6000F5F000F0F006FEF7D3FC00EBC00101EB3D
:102C7000001061688900B0FBF1F0B0FBF5F006EBE5
:102C80000016FEF7C5FC00EBC00101EB0010616807
:102C90008900B0FBF1F7FEF7BBFCD0E081423DD1EB
:102CA000FEF7B6FC00EBC00101EB001061684900C3
:102CB000B0FBF1F0B0FBF5F00601FEF7A9FC00EB6C
:102CC000C00101EB001061684900B0FBF1F7FEF7AD
:102CD0009FFC00EBC00101EB001061684900B0FBF4
:102CE000F1F0B0FBF5F06FF01801484307EB8001FD
:102CF00008EBC100B0FBF5F000F0F80006EB400671
:102D0000FEF786FC00EBC00101EB00106168490092
:102D1000B0FBF1F7FEF77CFC3CE055E0FEF760FC11
:102D200000EBC00101EB001061684900B0FBF1F05D
:102D3000B0FBF5F00601FEF753FC00EBC00101EB20
:102D4000001061684900B0FBF1F7FEF749FC00EBA9
:102D5000C00101EB001061684900B0FBF1F0B0FB6D
:102D6000F5F06FF01801484307EB800108EBC10054
:102D7000B0FBF5F000F0F80006EB4006FEF730FC83
:102D800000EBC00101EB001061684900B0FBF1F7F6
:102D9000FEF726FC00EBC00101EB00106168490062
:102DA000B0FBF1F0B0FBF5F06FF01801484307EB12
:102DB000800108EBC100B0FBF5F000F007002168CE
:102DC00030448860BDE8F081FEF70AFC00EBC001EA
:102DD00001EB001061688900B0FBF1F6FEF700FC22
:102DE00000EBC00101EB001061688900B0FBF1F05D
:102DF000B0FBF5F06FF01801484306EB800108EBDB
:102E00000110B0FBF5F000F0F006FEF7E9FB00EB77
:102E1000C00101EB001061688900B0FBF1F0B0FB6C
:102E2000F5F006EB0016FEF7DBFB00EBC00101EB53
:102E3000001061688900B0FBF1F7FEF7D1FB00EBF1
:102E4000C00101EB001061688900B0FBF1F0B0FB3C
:102E5000F5F06FF01801484307EB800108EB011013
:102E6000B0FBF5F000F00F00A9E7000000380140CA
:102E700090F83910122903D0322901D0022070476E
:102E80008168B1F5805F016A0BD04A1C026202685A
:102E900009785160C18C491E0904090CC1840ED007
:102EA00017E009880268C1F308015160016900292F
:102EB000016A02D0491C0162ECE7891CFBE701684A
:102EC000CA6822F08002CA600068C16841F040010F
:102ED000C160002070472DE9F0471D4690460E4620
:102EE0000446FEF755F907465FEA08004FF000096F
:102EF0004FF0010808D030E0681C05D095B1FEF70E
:102F000047F9C01BA8420DD82068006836EA0000C7
:102F1000F2D127E0681C20D025B1FEF739F9C01B9B
:102F2000A8421AD92068C16821F08001C1602068D8
:102F3000C16821F02001C1602068C16821F480715E
:102F4000C1602068416921F00101416184F8398044
:102F500084F838900320BDE8F0872068006836EADE
:102F60000000D7D00020F6E70148FFF72FB9000096
:102F7000A40700200148FFF729B90000E40700205A
:102F8000FEE700000FB4054B10B503A9044A0298F0
:102F900000F092F910BC5DF814FB0000653A0008DF
:102FA000A80500200FB4084B10B504A902AA039885
:102FB00000F082F9044602A9002000F014FD20462A
:102FC00010BC5DF814FB0000E739000837B5144663
:102FD0000846064B6A46214600F06EF904466946EB
:102FE000002000F000FD20463EBD0000E73900084B
:102FF000490050EAC12018BF04204A0D18BF40F014
:10300000010040F2FF72B2EB515F08BF40F00200D6
:10301000012808BF052070472DE9F0414F1E00EB45
:10302000C7010446D1E9000115461E4637F00602E5
:103030000DD02A463346FDF7E1F97F1E04EBC703A6
:10304000D3E90023FDF733F937F00602F1D1022F5F
:1030500025D0042F13D0062F18BFBDE8F0812A46D3
:103060003346FDF7CBF9D4E90A23FDF720F92A46C8
:103070003346FDF7C3F9D4E90823FDF718F92A46CA
:103080003346FDF7BBF9D4E90623FDF710F92A46CC
:103090003346FDF7B3F9D4E90423FDF708F92A46CE
:1030A0003346FDF7ABF9D4E90223FDF700F92A46D0
:1030B0003346FDF7A3F9D4E90023BDE8F041FDF75D
:1030C000F6B800000022134610460149FDF708BA81
:1030D0000000F03F0122FDF772BAFDF7E8B80022C8
:1030E000134610461146FDF7FBB940F201320020AD
:1030F0004FF0E041FDF763BA024A00201107FDF7E7
:103100005EBA000001FDFFFF02E008C8121F08C1FF
:10311000002AFAD170477047002001E001C1121F58
:10312000002AFBD170470000014908607047000089
:10313000AC0500202DE9FF5F82B00021DDE90430FD
:10314000020DDDF840B0034318D044F61050A2F24F
:10315000FF3242431514119801281FD0A5EB0B0034
:10316000401C5FEA000A4FF000064E4FDFF838912E
:10317000B046504615D5CAF1000413E01198012459
:103180004AA3012801D16FEA0B010298119AC0E904
:103190000031C0E9024206B0BDE8F09FCBF100006B
:1031A000DFE704460021404A491842EB0450CDE9CC
:1031B000001012E0E00707D032463B464046494641
:1031C000FDF71CF98046894632463B4610461946B3
:1031D000FDF714F906460F466410002CEAD1DDE92C
:1031E0000401DDE90023BAF1000F06DAFDF706F964
:1031F00042464B46FDF702F905E0FDF771F94246FC
:103200004B46FDF76DF904460E460022284BFDF7AC
:103210005FFB03D84FF0FF30014607E00022254B4B
:1032200020463146FDF743F8FDF73AFB102409E04C
:10323000002C0ADB0A220023FDF73BFA039B303205
:103240001A55641E50EA0102F2D1641C039AC4F1BB
:1032500011031444119A012A03D0012208430DD10D
:103260000AE0084304D000204FF0110B119072E7E0
:10327000A3EB0B056D1E0DE05B4504DD4FF0000276
:1032800005F1010504E003DA4FF00002A5F10105A4
:10329000002AECD002981199C0E90231C0E900453A
:1032A00079E70000000014400000F03F300000000B
:1032B0000000F0430000E03F2DE9FF4F95B09B4632
:1032C0008946064600250FE2252877D100242746A7
:1032D000F84A0121059400E0044316F8013F203B21
:1032E00001FA03F01042F7D130782A2811D06FF09C
:1032F0002F033078A0F13002092A16D8059A44F03D
:10330000020402EB820203EB42021044761C059099
:10331000EFE759F8042B0592002A03DA504244F4EF
:103320000054059044F00204761C30782E2816D103
:1033300016F8010F44F004042A280DD06FF02F0274
:103340003078A0F13003092B09D807EB870302EB93
:103350004303C718761CF3E759F8047B761C3078D2
:103360006C280FD006DC4C2817D068280DD06A28AE
:1033700014D104E0742810D07A280FD10DE044F461
:1033800000140AE044F4801401E044F4401472781C
:10339000824202D104F58014761C761C30786628AF
:1033A0000BD013DC582877D009DC002875D04528CD
:1033B000F6D04628F4D047281AD19DE118E06328BA
:1033C00035D0642879D0652812D195E1702873D062
:1033D00008DC6728F1D069286FD06E280DD06F28DF
:1033E00006D1B5E073282CD0752875D0782874D014
:1033F0005A46179990476D1C75E1C4F30250022894
:1034000009D003280DD0D9F8001004280DD00D6084
:1034100009F1040967E1D9F80010EA17C1E900527F
:10342000F6E7D9F800100D80F2E70D70F0E719F813
:10343000041B8DF8001000208DF80100EA460120E1
:1034400003E059F804AB4FF0FF3061074FF0000183
:1034500002D40DE008F101018846B9420FDA804537
:10346000F8DB1AF808100029F4D108E008F101018E
:1034700088468142FADB1AF808100029F6D105982F
:103480005B46A0EB080721463846179A00F094FAED
:10349000284400EB080507E04DE029E10DE01AF8AB
:1034A000010B5A4617999047B8F10108F7D25B46CD
:1034B00021463846179A13E142E00A220092C4F3EB
:1034C00002524FF0000A022A08D059F804CB032A0E
:1034D0004FEAEC710AD00DE029E02AE009F107017A
:1034E00021F00702F2E802C1914609E00FFA8CFCD4
:1034F0004FEAEC71042A03D14FFA8CFC4FEAEC71CD
:10350000002907DA0A460021DCF1000C61EB020118
:103510002D2202E0220504D52B228DF80420012261
:1035200003E0E20701D02022F7E7904659E00A21A4
:1035300002E010220DE010214FF0000A00910BE094
:1035400010224FF0000A44F004040827009203E020
:1035500008224FF0000A0092C4F30252022A05D05A
:1035600059F804CB0021032A08D009E009F107012A
:1035700021F00702F2E802C1914605E01FFA8CFC37
:10358000042A01D10CF0FF0C4FF00008220728D5C7
:10359000702806D0009B83F0100353EA0A0305D07D
:1035A0000EE040228DF80420012208E05CEA0102CE
:1035B00006D030228DF804208DF8050002229046B6
:1035C000009B83F0080353EA0A030AD15CEA010274
:1035D00001D1620705D530228DF804204FF0010893
:1035E0007F1E582804D034A003900EA802900DE04E
:1035F00036A0F9E753466046009AFDF75AF884462C
:103600000398825C0298401E029002705CEA0100FE
:10361000F0D1029806A9081A00F1200A600702D525
:1036200024F4803400E00127574502DDA7EB0A00AF
:1036300000E0002000EB0A01009005984144401A88
:103640000590E00306D45B462146179A059800F0E2
:10365000B3F90544002706E001A85A46C05D179952
:1036600090476D1C7F1C4745F6DBE0030CD55B469D
:103670002146179A059800F09FF9054404E0302090
:103680005A46179990476D1C0099481E00900029D2
:10369000F5DC08E0029802995A460078491C02912C
:1036A000179990476D1CBAF10001AAF1010AF1DCEB
:1036B00065E10000092801003031323334353637F6
:1036C000383961626364656600000000303132336E
:1036D000343536373839414243444546000000000E
:1036E00000F058F90544761C307800287FF4ECADE2
:1036F00019B02846BDE8F08F620700D4062709F10B
:10370000070222F0070CFCE80223E14603F0004820
:103710005FEA080C02D00FF2702C0DE05FEA045C47
:1037200002D50FF2682C07E05FEAC47C02D00FF2EA
:10373000602C01E0AFF2700C4FF0FF3823F0004333
:10374000CDF850C065280CD006DC452809D04628A5
:103750001DD047283DD13DE0662818D067287ED18E
:1037600038E00021112F01DB112000E0781CCDE9A9
:10377000000106A90EA8FFF7DDFCDDE90F010E9A96
:1037800003910021009207F1010A04914DE04FF0EE
:1037900000400097CDE9011006A90EA8FFF7CAFC6A
:1037A000DDE90F0203920E9B11990022DDF80CA0B7
:1037B0000093049211B9791C00EB010AB7EB0A00DF
:1037C00004D4C0F1FF3007F1010A0490AAEB07000E
:1037D000019044E0012F00DA01270021112F01DDC3
:1037E000112000E03846CDE9000106A90EA8FFF738
:1037F000A1FCDDE90F010E9A0391002104910092D2
:10380000BA4621070CD40399514500DA8A46BAF129
:10381000010F05DD009AAAF10101515C302908D0A1
:10382000B84202DA10F1040F06DA0121CDE90110E5
:1038300015E0AAF10101E9E7002805DC049901443B
:103840000491AAEB000102E0411C514500DD8A46CB
:103850000499401A401C01904FF00040029020074C
:1038600004D40198504501DBCDF8048000208DF888
:103870004F0002980DF14F07B0F1004F25D02B20DB
:103880000E9002984FF0020800280CDA4042029095
:103890002D200E9007E00A210298FCF7F4FE30314B
:1038A000029007F8011DB8F10001A8F10108F2DC4F
:1038B00002980028EFD1791E0E980870307800F039
:1038C000200040F0450007F8020D12A8C01B00F1CF
:1038D00007081498007800B1012000EB0A01019854
:1038E00001EBE07105984144401A401E0590E00349
:1038F00006D45B462146179A059800F05DF805440A
:103900001498007818B15A46179990476D1CE00337
:1039100024D55B462146179A059800F04DF80544DA
:103920001CE00498002807DBDDE90301884203DD81
:103930000098405C179901E0179930205A4690474B
:10394000049805F10105401C04900198401E019067
:1039500004D12E205A46179990476D1CBAF10001E8
:10396000AAF1010ADDDC05E017F8010B5A461799A8
:1039700090476D1CB8F10001A8F10108F4DC5B462A
:103980002146179A0598ABE62D0000002B00000099
:10399000200000002DE9F041044600251E46174690
:1039A000880404D405E039462020B0476D1C641E0D
:1039B000F9D52846BDE8F0812DE9F04104460025FF
:1039C0001E469046C80301D5302700E02027880412
:1039D00004D505E041463846B0476D1C641EF9D554
:1039E0002846BDE8F0810A68531C0B6010707047D0
:1039F00070B5104D0C46032801DA216859B1696889
:103A0000491C814206DA2068012803D100F014F82D
:103A10000020206070BD002000F00EF80120206022
:103A20000A20FDF7D9FA00F029F8FCF7E4FD6860F8
:103A300070BD00009805002010B5094B4FF480714F
:103A400040B100221846FDF79EFB0120BDE8104062
:103A500000F044BD01221846FDF795FB0020F5E774
:103A60000000024013B50A23012269460248FEF70E
:103A7000FFFC00981CBD0000A407002010B51E48E4
:103A8000FDF755FA0A211C48FDF7FEF91A48FDF723
:103A9000F9F8FCF7ABFDFCF7C7FD4FF06632174BAA
:103AA000FCF7ACFC6FF00B02FCF789FDFCF7CFFDD7
:103AB00001461348FCF7BDFB1249FCF7B4FBFCF7C9
:103AC000B3FD00F08BFA104A104BFCF794FC4FF05A
:103AD00033320F4BFCF704FD02460B4600200D4924
:103AE00000F018FDFCF7B3FD044600F073FC02483B
:103AF000FDF758FA204610BD3007002066660A40E0
:103B000000000442000020417B14AE47E17AFC3FF4
:103B10003333E33F0000244001A001F0A1BA0000CC
:103B200041542B43434C4B3F0D0A000070B5022813
:103B300007D0274C03281CD0042830D0022420466C
:103B400070BD244D4FF4005631462846FDF716FB54
:103B5000A0BB0A20FDF740FA31462846FDF70EFBD0
:103B600004002BD131462846FDF708FB0028F9D088
:103B7000E5E702212046FDF701FBF8B90A20FDF731
:103B80002BFA022125462046FDF7F8FA040015D14C
:103B900002212846FDF7F2FA0028F9D0CFE72021CC
:103BA0002046FDF7EBFA48B90A20FDF715FA202167
:103BB00025462046FDF7E2FA040001D00124BEE7C5
:103BC00020212846FDF7DAFA0028F9D0B7E70000EF
:103BD0000004024000080240F0B5174887B00168B1
:103BE00041F004010160016801F0040105910168E0
:103BF00041F0020101600068002400F0020005901D
:103C00004FF40050012503268DE8710069460B48EA
:103C1000FDF7EEF902208DE87100094F694638463C
:103C2000FDF7E6F920208DE8710069463846FDF77A
:103C3000DFF907B0F0BD00001C3802400008024068
:103C40000004024010B541F2336204A107A001F064
:103C500007FABDE8104009A001F05CBB3131372EF6
:103C600036302E3135372E313337000041542B4E4C
:103C70004344503D25732C25640D0A004F4B000032
:103C80002DE9F04DC84A002490B0914205DA21F0A8
:103C90000043934201D805D120B110B0BDE8F04DEA
:103CA000FFF718BAB1F5801F1BDA53EA000209D0FA
:103CB000002911DA0120FFF737FA10B0BDE8F04D06
:103CC000FFF70DBA0220FFF72FFAFFF7FBF910B04C
:103CD00081F00041BDE8F08D6FF035043622FCF72D
:103CE0006EFC04EB2152C1F31308B049A2F2FF337A
:103CF000414401F4801282F07F6103EB225281F093
:103D00004051009241EA08010022A94BFCF770FBE8
:103D1000044608F10200A74EC0F313000D467E448E
:103D2000032867D2D6E900232046FCF75DFE1ED1AA
:103D30000098002802BFD6E9000110B0BDE8F08D60
:103D4000FCF79DFD07460C469B4A9C4BFCF756FB37
:103D500006460D469A4A9B4B38462146FCF74EFBD9
:103D600010B032462B46BDE8F04DFCF7A0BA4FF03C
:103D70005532954B20462946FCF740FB0022934BD9
:103D8000FCF739FB06460F4622462B4610461946DD
:103D9000FCF734FB32463B46FCF730FB0646009806
:103DA0000F46F0B1FCF76BFD80468A46824A834B92
:103DB000FCF724FB32463B46FCF71DFB22462B4614
:103DC000FCF716FB05460C467D4A7E4B40465146A5
:103DD000FCF714FB10B02A462346BDE8F04DFCF773
:103DE00007BB0B4610B0324620462946BDE8F04DD1
:103DF000FCF7FEBA00224FF080432046FCF757FA4A
:103E000002460B4620462946FCF76AFB06460F464B
:103E10000098FCF734FDCDE9040132463B461046DC
:103E20003946FCF7EBFA0C9069480C9A4044019033
:103E300009910B461046FCF7E1FA824602466548B6
:103E40008B46C8F151080B4608F5D7280321784462
:103E5000FFF7E2F852465B46FCF7D0FA0A905E485C
:103E60000D9152465B4604217844FFF7D5F8099B33
:103E70000C9AFCF7C3FA844601980D9B40EA0808A7
:103E800060460A9AFCF713FA83460891B8F1000FCE
:103E90004EDD4FF0FF3220462946FCF790FB2246CC
:103EA0002B46FCF7ABFA804600988A4660B3DDE902
:103EB0000401414A414BFCF7A1FA099100905A468E
:103EC00040465146089BFCF7F2F932463B46FCF768
:103ED00095FA099B009AFCF7EAF942465346FCF72B
:103EE0008AFA22462B46FCF783FA04460D46DDE9A2
:103EF0000401334A334BFCF781FA10B022462B46BB
:103F0000BDE8F04DFCF774BA5A464046089BFCF7F2
:103F1000CEF932463B46FCF771FA42465346FCF76F
:103F20006AFA10B022462B46BDE8F04DFCF763BAA2
:103F3000009840B3DDE904011F4A204BFCF75EFA0C
:103F400080468A465A4620462946089BFCF750FA86
:103F500032463B46FCF752FA42465346FCF748FAD3
:103F600022462B46FCF744FA04460D46DDE90401DF
:103F7000134A144BFCF742FA10B022462B46BDE818
:103F8000F04DFCF735BA0B465A4620462946FCF759
:103F90002FFA32463B46FCF731FA10B022462B4648
:103FA000BDE8F04DFCF727BA0000F07F645F090020
:103FB0000000F03FBE1D0000763C7935EF39EA3D48
:103FC0000000E0FE422EE63F5555D53F0000E03FA1
:103FD00086EBF9FF561C0000541C00002DE9F0414F
:103FE000044630480025814205DA21F00042824231
:103FF00001D805D124B12046BDE8F041FFF76AB8E9
:10400000B1F5801F1BDA52EA040008D000290FDA4C
:104010000120FFF789F8BDE8F041FFF760B8022002
:10402000FFF782F8FFF74EF881F00041BDE8F0811C
:104030006FF0350536222046FCF7C1FA044605EB41
:104040002150A0F2FF32D00F40F2FF331B1A0D4671
:1040500063F31F551044FCF712FC06460F46294631
:104060002046FFF70DFE104A104BFCF7C7F9044637
:104070000D460F4A0F4B30463946FCF7BFF9224632
:104080002B46FCF714F905460C460B4A0B4B304601
:104090003946FCF7B3F92A462346BDE8F041FCF760
:1040A00006B900000000F07F0EE526157BCBDB3F54
:1040B000362BF111F3FE593D00609F501344D33F5E
:1040C0008AB0FDF773F8FEF7D3FC142104A8FCF7BF
:1040D00034F86F48016841F004010160016801F0A3
:1040E00004010091016841F0010101600068694C20
:1040F00000F001004FF480770090002239462046FE
:10410000FDF741F84FF001090220CDE90690CDE915
:10411000047904A92046FCF76BFFFEF711FA5F480B
:104120005D494FF0000801604FF4E131C0E901182A
:104130000C27C0F80C80C0E90487C0F818804446FA
:10414000C0F81C80FEF7AFF8544855494030016074
:104150004FF41651C0E90114C460C0E904478461FA
:10416000C461FEF7A0F8FEF711FAFEF773FAFFF745
:1041700033FD00F051F9012000F006F9012000F0B4
:10418000ADF9002000F0B6F9012246494348FEF798
:1041900015F9444941480122491C4030FEF70EF907
:1041A00001F000F900F0A0F8FFF74CFD00273C46B5
:1041B000BA4628466D1C0E2816DD0025FFF75EFC6A
:1041C000FCF719FA8346012C02D101A9FFF710FC74
:1041D000022F02DAFFF7A0FC06E005D10198C1B278
:1041E000584600F05DFF761C00F080FE062818D2CD
:1041F000DFE800F01703050A0C12012711E0022086
:1042000000F0C2F802270CE0002613E00020FFF7C0
:1042100013FCCDF8049004E00120FFF70DFCCDF86D
:104220000480032E06DB1F491C480122491C403034
:10423000FEF7C4F86420FCF7CFFE0220FFF776FCFF
:1042400048B9BAF1000F14D00120FFF7F5FB0020A8
:10425000CDF8048082460320FFF768FC0028A8D12F
:1042600074B111A0FEF78EFE002000F043F9002487
:104270009FE70020FFF7E0FB0120CDF80490E9E77D
:104280000EA0FEF77FFE012000F034F9012490E734
:104290001C3802400000024000380140A407002002
:1042A0000044004098050020456E746572206D61E1
:1042B0006E75616C206D6F64650D0A00456E7465E6
:1042C00072206175746F6D61746963206D6F6465D0
:1042D0000D0A000001A000F0C3BE000041542B4EA7
:1042E00052420D0A0000000010B5012111A000F09B
:1042F000B7FE14A001F00EF8002113A000F0B0FEEC
:1043000010A001F007F8022113A000F0A9FE0DA0F3
:1043100001F000F8012114A000F0A2FE09A000F0B5
:10432000F9FF012114A000F09BFEBDE8104005A09C
:1043300000F0F0BF41542B4346554E3D25640D0A15
:10434000000000004F4B000041542B4353434F4E9D
:104350003D25640D0A00000041542B43455245475A
:104360003D25640D0A00000041542B4E4E4D493D41
:1043700025640D0A0000000041542B43474154546A
:104380003D25640D0A00000010B5A0B1012814D02D
:1043900002281ED10F2202214820FEF73DFA1122E9
:1043A00002215820FEF738FA12220221BDE81040FF
:1043B0006820FEF731BA1022EDE7112202214820D1
:1043C000FEF72AFA122202215820FEF725FA1322BC
:1043D000EBE710BD00B58BB0002108910991FCF707
:1043E00023F902460B460AA16846FEF7DBFD00985A
:1043F0000890BDF80400ADF824009DF806008DF883
:10440000260008AA04214820FEF760FA0BB000BD80
:10441000256620202020200008B52FA0002200685B
:10442000009011462820FEF7F7F9012200213820DC
:10443000FEF7F2F9022200214820FEF7EDF90322EF
:1044400002210020FEF7E8F9042202211020FEF7E5
:10445000E3F9052202212020FEF7DEF906220221DF
:104460003020FEF7D9F96A4602214020FEF72EFAE5
:10447000072204210020FEF7CFF908220421102092
:10448000FEF7CAF9092204212020FEF7C5F90A2205
:1044900004213020FEF7C0F96A4604214020FEF7CF
:1044A00015FA0B2206210020FEF7B6F90C22062190
:1044B0001020FEF7B1F90D2206212020FEF7ACF9FD
:1044C0000E2206213020FEF7A7F96A460621402079
:1044D000FEF7FCF908BD00003A00000030B10128E9
:1044E00006D1152206214820FEF796B91422F9E7D5
:1044F0007047000030B1012806D104A206217020C7
:10450000FEF7E4B902A2F9E770470000410000009D
:104510004D0000002DE9F04D1D460C4698B01746A1
:1045200021F0004123F00043002814BF4FF0010C9C
:104530004FF0000C0CEB440CFE4A0CEB02064FEA69
:10454000620C66452BD33E0018BF012606EB4506DC
:104550001644F94A964222D3F84A53EA070C02D08D
:10456000944205D148B918B000201146BDE8F08D3D
:10457000002808BF4FF0000C01D04FF0010C0CEBED
:10458000440212F5001F0AD8002F14BF4FF0010C8F
:104590004FF0000C0CEB450212F5001F07D918B0C4
:1045A0003A462B462146BDE8F04DFEF796BD002267
:1045B000DFF88CA3002CB8BF534526DADFF884C39C
:1045C0006345A8BF022220DADFF870C39C451CDCDB
:1045D000DFF874C30CEB235CBCF1140F08DDCCF1E5
:1045E000340627FA06FC0CFA06F6BE420DD108E0A6
:1045F0005FB9CCF1140623FA06FC0CFA06F69E42CB
:1046000003D10CF00102C2F1020251EA000C19D1EF
:10461000002D17DA002C18BF022A01D0012A07D07A
:104620000220FEF781FD18B0BDE8F04DFEF74ABD4F
:104630000220FEF779FDFEF745FD18B081F000413C
:10464000BDE8F08DB7F1000C6CD1534525D104F1D4
:10465000804212F5801201BF00280020B74918B02F
:1046600008BFBDE8F08DB548884207DC002DA1BF2A
:104670006046294618B0BDE8F08D07E0281E05DA2F
:1046800080F0004118B06046BDE8F08DAF49794434
:10469000D1E9000118B0BDE8F08DDFF8A0C2634594
:1046A00025D1002D1FDA19B1514512D1D8B909E031
:1046B000002840F0EC82A24A214618B062F31E01A5
:1046C000BDE8F08D0020214618B060F31E01BDE862
:1046D000F08D08DA18B02346BDE8F04D0246002000
:1046E0006146FBF7FDBE18B02146BDE8F08D51458F
:1046F00018DAB5F1804F0DD0A5F1005CBCF1FF5C7C
:1047000010D1B4F1000C0DDB18B06146BDE8F04DDE
:1047100000F056BD234618B00246BDE8F04D1946DC
:10472000FBF76CBE060024F0004C3BD1D9B15145DB
:1047300033D1002C06DD002DA1BF0020514618B05A
:10474000BDE8F08D002C01DD002D1BDB002C13DA01
:10475000002D11DB012A4FF0000014BF78497C497D
:1047600018B0BDE8F08D022A18BF002C0AD0012A2B
:1047700008D1002C06DA0AE0002CB8BF002D11DAAF
:10478000012A04D0002018B00146BDE8F08D18B011
:1047900000204FF00041BDE8F08DA1F14050B0F194
:1047A0007F601AD0012000EBE47050EA020421D0AF
:1047B000624C521E4FF0000B104304BF4FF0000B31
:1047C000644C654883427CDD644A654893421FDD42
:1047D000884217DB002D25DB37E0002C00DA4AB1D8
:1047E000022A0CBF01204FF0FF3018B0BDE8F04D99
:1047F000FCF745B80120FEF797FC18B0BDE8F04D76
:10480000FEF76DBC4D4A8A4202DC002D0ADC1CE03A
:10481000814202DA002D18DA04E0484B994220DD8B
:10482000002D12DD0220FEF77FFCFEF75EFC054640
:104830000E460022534658462146FBF7DFFD18B0CE
:1048400066F31E012846BDE8F08D0220FEF76CFCE1
:10485000FEF752FC0A46214618B062F31E01BDE87D
:10486000F08D002230466146FBF7C2FD80460E46C1
:104870006FF00102FBF7A3FE4FF05532394BFBF707
:10488000BAFD42463346FBF7B9FD0022364BFBF733
:10489000B2FD824642463346049110461946FBF764
:1048A000ADFD5246049BFBF7A9FD8A4600904FF0F0
:1048B000C0422E4B40463146FBF7A0FD2C4A2B4B05
:1048C00000E027E0CDE9060151460098FBF796FD90
:1048D00082460191274A284B40463146FBF78EFD20
:1048E0005246019BFBF784FD82460B46024605912A
:1048F000DDE90601FBF7DBFCDDE90623002688463F
:104900003046FBF775FD5246059BFBF774FD0246EA
:1049100000F07EB90020B1F5801F07DA352230465D
:104920006146FBF74CFE06466FF0340000EB215069
:1049300024E00000FFFF1F00FFFF0F000000F03F1A
:104940000000F07F0000404301FCFFFF4E14000018
:104950000000F0FF0000F0BF0000E0410000F04365
:10496000FFFFEF3F5555D53F0000E03F4715F73FAC
:10497000FE822B6544DF5DF80BAE543EA0F2FF30A3
:104980000190C1F3130040F07F6141F0405102916A
:10499000FE498842D8BF002004DDFD498142C8BFDE
:1049A000012001DD0D9008E000200D900198401CD1
:1049B00001900298A0F5801002900299F548784481
:1049C0000B910D9900EBC100D0E900230F93304605
:1049D0000A920B99FBF70CFDCDE90601DDE90A21EE
:1049E00030460F9BFBF763FC02460B460020EA496A
:1049F000FBF776FD059102460B460090DDE90601C6
:104A0000FBF7FCFC1490E5488A464FF00008784418
:104A10000299006812904FF0005040EA61010D9831
:104A20000F9B01EB804000F5002109910A9A129832
:104A3000FBF7DEFC32460B9BFBF7DDFC42465346A0
:104A4000FBF7DCFC0646029140465146099B129A50
:104A5000FBF7D4FCDDE90623FBF7CDFC3246029BD5
:104A6000FBF7C6FC059B009AFBF7C8FC0091149A63
:104A70000490534610461946FBF7C0FC0646024612
:104A8000C7480B46029106217844FEF7C5FACDE9E6
:104A90000510029B324610461946FBF7AFFCDDE9D4
:104AA0000532FBF7ABFC05910646534640461946D6
:104AB000149AFBF7FCFB009B049AFBF79FFC324621
:104AC000059BFBF7F4FBCDE9051042465346104623
:104AD0001946FBF793FC0022B24B02910A90FBF7B8
:104AE000E6FBDDE90532FBF7E2FB0E464246AD4B45
:104AF0004046FBF77DFC029B0A9AFBF779FCDDE957
:104B00000532FBF778FC424602910A903346104684
:104B10005146FBF773FCCDE906015346149A0299FE
:104B20000A98FBF76BFC8A4602903346424600998E
:104B30000498FBF763FC5346029AFBF7B8FB8246E6
:104B40000B4602460591DDE90601FBF7B0FBDDE906
:104B50000623002088460646FBF74AFC5246059B82
:104B6000FBF749FC824609914FF060428E4B30467C
:104B70004146FBF743FC049006918C4A8A4B504611
:104B80000999FBF73BFC82460291894A894B3046E2
:104B90004146FBF733FC5246029BFBF788FB864BF2
:104BA0007B440D9A03EBC203D3E90023FBF77FFBA1
:104BB0000E9007910198FBF762FE0591DDE906135F
:104BC00082460E9A0498FBF772FB7C4A7A440D9B4E
:104BD00002EBC303D3E9002300930292FBF767FBC8
:104BE0005246059BFBF763FB00268846524630463B
:104BF000059BFBF7FDFB009B029AFBF7F9FB069B6D
:104C0000049AFBF7F5FB079B0E9AFBF7F4FB0246B1
:104C100000200B46029038462946FBF7EFFB824600
:104C200001912B4638461946029AFBF7E1FB3246C2
:104C30004346FBF7E3FB5246019BFBF738FB074675
:104C40008A463246434629460298FBF7D7FB05467B
:104C50000E463A465346FBF72AFB594A884691428C
:104C600021DBA8EB020353EA000210D12A463346A7
:104C7000FBF7BEFBCDE90401524A534B384651467F
:104C8000FBF715FBDDE90423FBF722FE21D202200E
:104C9000FEF74AFAFEF729FA0A46214618B062F3EF
:104CA0001E01BDE8F08D494B28F000429A4210D316
:104CB000474A08EB020353EA00027FF4C6AD2A46D6
:104CC0003346FBF795FB3A465346FBF701FE7FF66A
:104CD000BCAD0022019228F000403E493E4A01EB63
:104CE0002051824223DA481C4FF4801121FA00F04F
:104CF00040443A4AC0F30A517A44394BA1F2FF3199
:104D0000CB4020EA0303C0F3130040F48010C1F14C
:104D10001401C84012680190B8F1000FBCBF4042B6
:104D2000019028463146FBF763FB05460E462A46AE
:104D3000334638465146FBF7BAFA4FF00008424670
:104D4000284B40460591FBF759FBCDE90601264A61
:104D5000264B40460599FBF751FB009102902A46ED
:104D6000334640460599FBF743FB3A465346FBF76B
:104D700042FB1F4A1F4BFBF741FB009B029AFBF7CC
:104D800096FA0746884602460B4635E08E980300A1
:104D90007AB60B005E1000000000F03FCE1000005D
:104DA000C40F00000000084009C7EE3FFD033ADCD5
:104DB000F5015B14E02F3EBE9C0E0000600E00006B
:104DC00000009040FE822B654715973C00CC904038
:104DD00000346F3F01FCFFFF0000E03FE40D0000E6
:104DE000FFFF0F00432EE63F396CA80C615C20BE2C
:104DF000EF39FAFE422EE63FDDE90601FBF757FAEE
:104E0000DDE9062305460E46FBF7F2FA3A4643462D
:104E1000FBF7F1FA0F462A46334600901046194632
:104E2000FBF7ECFA824602462E4888460B460521DF
:104E30007844FEF7F1F852464346FBF7DFFA2A467C
:104E40003346FBF7D8FA80468A463B462846314629
:104E5000009AFBF7D3FA3B46009AFBF728FA069133
:104E6000009000224FF0804340465146FBF7C0FAC5
:104E70000F460C904246534628463146FBF7BEFA91
:104E80003B460C9AFBF72CFB069B009AFBF7B0FA0B
:104E90002A463346FBF7ACFA0022134BFBF7ABFA7A
:104EA000054601980E4601EB00510815002810DC5C
:104EB00028463146019AFBF782FBFEF799F8042851
:104EC00008BFFEF719F928463146019AFBF777FB30
:104ED00005460B4618B02A4658462146BDE8F04D17
:104EE000FBF78CBA4C0C00000000F03F2DE9FE43AC
:104EF0000024424E2546701900F0B0F9002805DB69
:104F0000705D0D2805D06D1C802DF4DB2046BDE8BA
:104F1000FE83032439493AA0FEF734F83BA1374811
:104F2000FBF716F900B101243CA13448FBF710F956
:104F3000C0B38179C379303901EB81016FF02F0261
:104F400002EB41011944437A847A303B03EB83033B
:104F500002EB430304EB0308037B447B303B03EB8E
:104F6000830302EB4303E618C37B047C303B03EB73
:104F7000830302EB4303E518837CC47C303B03EBE3
:104F8000830302EB43031C44837D407D01F5FA61FA
:104F9000303800EB800002EB40001F1833464246D9
:104FA000894600E00EE0CDE900541EA00297FDF70F
:104FB000E9FFCDE900472B4632464146484600F01E
:104FC000D9F802241CA10D48FBF7C2F805000ED049
:104FD000697B1BA0FDF7D6FFE97D1DA0FDF7D2FF81
:104FE000687B322803D1E87D312805D00524802153
:104FF0000248FBF7A2F889E70424F8E7B00600208E
:105000005553415254323A25730D0A0041542B4DE9
:105010004C57455654494E443D3300002B43434CB6
:105020004B00000025642D25642D25642025643A5D
:1050300025643A25640D0A002B4E4E4D493A38003E
:105040007072745B31335D3A25630D0A0000000015
:105050007072745B32335D3A25630D0A0000000004
:105060000FB470B5A0B0002425AA68462499FDF7B6
:10507000ADFF6846FBF77EF8C5B26E4607E0311912
:105080000A2301220548FDF7F3F9641CE4B2AC429F
:10509000F5D320B070BC5DF814FB0000E4070020DD
:1050A00030B5B3B00D46044680210EA8FBF745F895
:1050B00000222EA92048FCF7D3FE002231A91E4869
:1050C000FCF7ACFE9DF8C6000DF1280C9DF8BA3037
:1050D0009DF8B9209DF8B8108CE80F000DF1180C60
:1050E0009DF8C5309DF8C720142104208CE80F00DE
:1050F000C4F3072103AB02910222E0B283E825004A
:1051000000200121CDE9000103464A220B490EA8E7
:10511000FDF748FF0EA8FBF72DF841080EAA08A0DE
:10512000FDF730FF0EA8FBF725F841080EAA0DA0E9
:10513000FFF796FF33B030BD84070020E85A00081F
:1051400073656E642073656E736F7273206461742F
:10515000613A41542B4E4D47533D25642C25730D28
:105160000A00000041542B4E4D47533D25642C2529
:10517000730D0A007FB514460D46DDE90812A0F153
:1051800030068DF800308DF8011000208DF80220D7
:1051900001900246029069460848FCF74BFF012047
:1051A0008DF80C008DF80D508DF80E408DF80F60C5
:1051B000002203A90148FCF7D9FE7FBD8407002027
:1051C0002DE9F04106460F46FBF7BCFB041E0D46D9
:1051D00018BF0120284320F00040C0F17F6000F19B
:1051E000E040C00F0ED0301C18BF0120384320F023
:1051F0000040C0F17F6000F1E040C00F04BF01201B
:10520000FDF792FF20462946BDE8F0810448D0E929
:105210000110081A7F2801D901207047002070472B
:105220008C05002010B50246FFF7F0FF10B14FF0DB
:10523000FF3010BD0749084C486800F07F03401C50
:10524000E25448600D2A02D10878401C0870002002
:1052500010BD00008C050020300600200B49D1E96C
:105260000132934202D14FF0FF307047084B02F0F9
:105270007F029A5C02708A68521C8A6000780D284E
:1052800002D14878401C48700020704780050020FB
:10529000B00500200448D0E90110081A7F2801D980
:1052A0000120704700207047800500200248D0E9A7
:1052B0000110081A704700008005002010B5024652
:1052C000FFF7E8FF10B14FF0FF3010BD0749084C61
:1052D000486800F07F03401CE25448600D2A02D168
:1052E0000878401C0870002010BD000080050020D8
:1052F000B005002070B50D460646002405E03019C3
:10530000FFF7ACFF401C02D0641CAC42F7DB204628
:1053100070BD000070B5A0B0064680216846FAF75F
:105320000CFF00244FF47A752846FBF755FEFFF773
:10533000BDFF010016D06846FFF7DCFF69460EA0EE
:10534000FDF720FE31466846FAF702FF30B13146DC
:105350000CA0FDF717FE002020B070BD802168462C
:10536000FAF7EBFE641C0A2CDEDB314608A0FDF7E1
:1053700009FE4FF0FF30EFE75553415254323A25C2
:10538000730D0A0046696E6420282573290D0A00F2
:1053900043616E27742066696E6420282573290D89
:1053A0000A00000070B500240DA0FDF7EBFD4FF4DE
:1053B0007A752846FBF710FE0EA0FFF7ABFF48B149
:1053C0000A2C05DD0024FEF785FF05A0FDF7DAFDB8
:1053D000641CEEE7BDE8704007A0FDF7D3BD0000F8
:1053E0007761697465204E42494F5420537461724D
:1053F000740D0A004F4B00004E42494F5420537425
:105400006172740D0A00000000000000000000003E
:105410000000000000000000000000F80000000094
:10542000000000333000000000100C06100C0600D5
:10543000000000000000000040C07840C07840003C
:10544000043F04043F040400007088FC083000009E
:10545000001820FF211E0000F008F000E0180000F6
:1054600000211C031E211E0000F0088870000000AF
:105470001E2123241927211010160E000000000001
:105480000000000000000000000000E0180402001E
:10549000000000071820400000020418E00000008F
:1054A0000040201807000000404080F0804040008D
:1054B0000202010F01020200000000F000000000E3
:1054C0000101011F010101000000000000000000B7
:1054D00080B070000000000000000000000000002C
:1054E00000010101010101010000000000000000B5
:1054F0000030300000000000000000008060180450
:10550000006018060100000000E010080810E0002C
:10551000000F102020100F00001010F800000000F5
:105520000020203F2020000000700808088870003C
:1055300000302824222130000030088888483000BC
:105540000018202020110E000000C02010F80000DC
:1055500000070424243F240000F808888808080075
:105560000019212020110E0000E01088881800008A
:10557000000F112020110E0000380808C83808005C
:105580000000003F000000000070880808887000DC
:10559000001C222121221C0000E010080810E0005D
:1055A0000000312222110F00000000C0C0000000E6
:1055B000000000303000000000000080000000000B
:1055C0000000806000000000000080402010080003
:1055D00000010204081020004040404040404000CC
:1055E00004040404040404000008102040800000A7
:1055F0000020100804020100007048080808F000AC
:105600000000003036010000C030C828E810E0007B
:105610000718272423140B000000C038E000000006
:10562000203C23020227382008F888888870000070
:10563000203F202020110E00C03008080808380044
:10564000071820202010080008F808080810E000BB
:10565000203F202020100F0008F88888E80810005C
:10566000203F20202320180008F88888E808100030
:10567000203F200003000000C03008080838000068
:1056800007182020221E020008F808000008F80869
:10569000203F210101213F20000808F808080000F0
:1056A0000020203F2020000000000808F808080023
:1056B000C08080807F00000008F888C0281808009B
:1056C000203F20012638200008F8080000000000D4
:1056D000203F20202020300008F8F800F8F80800CB
:1056E000203F003F003F200008F830C00008F808C5
:1056F000203F200007183F00E01008080810E000D5
:105700000F10202020100F0008F808080808F000EB
:10571000203F210101010000E01008080810E0000E
:105720000F18242438504F0008F8888888887000A3
:10573000203F2000030C3020007088080808380043
:105740000038202121221C00180808F80808180039
:105750000000203F2000000008F808000008F808BA
:10576000001F202020201F000878880000C838086B
:10577000000007380E010000F80800F80008F800E3
:10578000033C0700073C030008186880806818087D
:1057900020302C03032C30200838C800C8380800FB
:1057A0000000203F2000000010080808C83808004A
:1057B0002038262120201800000000FE02020200EE
:1057C0000000007F40404000000C30C0000000009E
:1057D000000000010638C00000020202FE000000C6
:1057E000004040407F00000000000402020204006C
:1057F00000000000000000000000000000000000A9
:105800008080808080808080000202040000000090
:105810000000000000000000000080808080000088
:105820000019242222223F2008F800808000000076
:10583000003F112020110E00000000808080000039
:10584000000E112020201100000000808088F80048
:10585000000E112020103F2000008080808000007A
:10586000001F222222221300008080F088888818DE
:105870000020203F202000000000808080808000E9
:10588000006B94949493600008F80080808000007E
:10589000203F210000203F20008098980000000059
:1058A0000020203F20200000000000809898000089
:1058B00000C08080807F000008F8000080808000A9
:1058C000203F24022D302000000808F800000000CE
:1058D0000020203F20200000808080808080800089
:1058E000203F20003F20003F80800080808000001B
:1058F000203F210000203F200000808080800000A9
:10590000001F202020201F008080008080000000D9
:1059100080FFA12020110E00000000808080800008
:10592000000E112020A0FF808080800080808000F9
:1059300020203F2120000100000080808080800026
:105940000033242424241900008080E0808000009B
:105950000000001F202000008080000000808000E8
:10596000001F202020103F20808080000080808049
:1059700000010E30080601008080008000808080D9
:105980000F300C030C300F000080800080808000FE
:105990000020312E0E312000808080000080808029
:1059A00080818E70180601000080808080808000D9
:1059B0000021302C2221300000000000807C0202F7
:1059C00000000000003F404000000000FF00000019
:1059D00000000000FF0000000002027C80000000C8
:1059E0000040403F000000000006010102020404E4
:1059F0000000000000000000030406080C1018203E
:105A00003000000000000000000102030406070847
:105A10000900000000010203040000000000000073
:105A2000000000000000F03F000000000000F83F10
:105A300000000000000000000000004003B8E23F4A
:105A4000000000000000000006D0CF43EBFD4C3EFC
:105A5000033333333333E33FFFAB6FDBB66DDB3FF1
:105A60004D268F515555D53F01411DA96074D13F39
:105A700065DBC9934A86CD3FEF4E454A287ECA3F33
:105A80003E5555555555C53F93BDBE166CC166BFB5
:105A90002CDE25AF6A56113FF16BD2C541BDBBBEAE
:105AA000D0A4BE726937663E04FA97999999D93F96
:105AB000AF788E1DC571CC3F9FC678D0099AC33F81
:105AC000935555555555E53F599322942449D23F56
:105AD000DE03CB966446C73F44523EDF12F1C23F1D
